{
  "_format": "hh-sol-artifact-1",
  "contractName": "HRS",
  "sourceName": "contracts/HRS.sol",
  "abi": [
    {
      "inputs": [
        {
          "components": [
            {
              "internalType": "address",
              "name": "superior",
              "type": "address"
            },
            {
              "internalType": "address[]",
              "name": "inferiors",
              "type": "address[]"
            }
          ],
          "internalType": "struct SuperiorToInferiorsDTO[]",
          "name": "_superiorToInferiors",
          "type": "tuple[]"
        },
        {
          "components": [
            {
              "internalType": "address",
              "name": "inferior",
              "type": "address"
            },
            {
              "internalType": "address",
              "name": "superior",
              "type": "address"
            }
          ],
          "internalType": "struct InferiorToSuperiorDTO[]",
          "name": "_inferiorToSuperior",
          "type": "tuple[]"
        },
        {
          "components": [
            {
              "internalType": "address",
              "name": "agentAddress",
              "type": "address"
            },
            {
              "internalType": "uint8",
              "name": "level",
              "type": "uint8"
            }
          ],
          "internalType": "struct AgentLevelDTO[]",
          "name": "_agentLevels",
          "type": "tuple[]"
        },
        {
          "internalType": "address",
          "name": "_principal",
          "type": "address"
        }
      ],
      "stateMutability": "nonpayable",
      "type": "constructor"
    },
    {
      "anonymous": false,
      "inputs": [
        {
          "indexed": false,
          "internalType": "address",
          "name": "agent",
          "type": "address"
        },
        {
          "indexed": false,
          "internalType": "uint8",
          "name": "newLevel",
          "type": "uint8"
        },
        {
          "indexed": false,
          "internalType": "address",
          "name": "newSuperior",
          "type": "address"
        },
        {
          "indexed": false,
          "internalType": "address[]",
          "name": "newSuperiorInferiors",
          "type": "address[]"
        },
        {
          "indexed": false,
          "internalType": "address",
          "name": "oldSuperior",
          "type": "address"
        },
        {
          "indexed": false,
          "internalType": "address[]",
          "name": "oldSuperiorInferiors",
          "type": "address[]"
        }
      ],
      "name": "onPromote",
      "type": "event"
    },
    {
      "inputs": [],
      "name": "getOwner",
      "outputs": [
        {
          "internalType": "address",
          "name": "",
          "type": "address"
        }
      ],
      "stateMutability": "view",
      "type": "function"
    },
    {
      "inputs": [
        {
          "internalType": "address",
          "name": "_agent",
          "type": "address"
        },
        {
          "internalType": "uint8",
          "name": "_newLevel",
          "type": "uint8"
        },
        {
          "internalType": "address",
          "name": "_newSuperior",
          "type": "address"
        }
      ],
      "name": "promote",
      "outputs": [],
      "stateMutability": "nonpayable",
      "type": "function"
    },
    {
      "inputs": [
        {
          "internalType": "address",
          "name": "_agent",
          "type": "address"
        },
        {
          "internalType": "uint256",
          "name": "amount",
          "type": "uint256"
        }
      ],
      "name": "reward",
      "outputs": [],
      "stateMutability": "nonpayable",
      "type": "function"
    }
  ],
  "bytecode": "0x60806040523480156200001157600080fd5b50604051620018c8380380620018c88339818101604052810190620000379190620008d7565b336000806101000a81548173ffffffffffffffffffffffffffffffffffffffff021916908373ffffffffffffffffffffffffffffffffffffffff16021790555080600160006101000a81548173ffffffffffffffffffffffffffffffffffffffff021916908373ffffffffffffffffffffffffffffffffffffffff160217905550620000ca8484620000e560201b60201c565b620000db826200033160201b60201c565b5050505062000be5565b60005b8251811015620001f45760008382815181106200012e577f4e487b7100000000000000000000000000000000000000000000000000000000600052603260045260246000fd5b6020026020010151600001519050600084838151811062000178577f4e487b7100000000000000000000000000000000000000000000000000000000600052603260045260246000fd5b602002602001015160200151905080600360008473ffffffffffffffffffffffffffffffffffffffff1673ffffffffffffffffffffffffffffffffffffffff1681526020019081526020016000209080519060200190620001db92919062000446565b5050508080620001eb9062000af4565b915050620000e8565b5060005b81518110156200032c5760008282815181106200023e577f4e487b7100000000000000000000000000000000000000000000000000000000600052603260045260246000fd5b6020026020010151600001519050600083838151811062000288577f4e487b7100000000000000000000000000000000000000000000000000000000600052603260045260246000fd5b602002602001015160200151905080600260008473ffffffffffffffffffffffffffffffffffffffff1673ffffffffffffffffffffffffffffffffffffffff16815260200190815260200160002060006101000a81548173ffffffffffffffffffffffffffffffffffffffff021916908373ffffffffffffffffffffffffffffffffffffffff16021790555050508080620003239062000af4565b915050620001f8565b505050565b60005b8151811015620004425760008282815181106200037a577f4e487b7100000000000000000000000000000000000000000000000000000000600052603260045260246000fd5b60200260200101516000015190506000838381518110620003c4577f4e487b7100000000000000000000000000000000000000000000000000000000600052603260045260246000fd5b602002602001015160200151905080600460008473ffffffffffffffffffffffffffffffffffffffff1673ffffffffffffffffffffffffffffffffffffffff16815260200190815260200160002060006101000a81548160ff021916908360ff16021790555050508080620004399062000af4565b91505062000334565b5050565b828054828255906000526020600020908101928215620004c2579160200282015b82811115620004c15782518260006101000a81548173ffffffffffffffffffffffffffffffffffffffff021916908373ffffffffffffffffffffffffffffffffffffffff1602179055509160200191906001019062000467565b5b509050620004d19190620004d5565b5090565b5b80821115620004f0576000816000905550600101620004d6565b5090565b60006200050b6200050584620009b7565b6200098e565b905080838252602082019050828560208602820111156200052b57600080fd5b60005b858110156200055f5781620005448882620006e3565b8452602084019350602083019250506001810190506200052e565b5050509392505050565b6000620005806200057a84620009e6565b6200098e565b90508083825260208201905082856040860282011115620005a057600080fd5b60005b85811015620005d45781620005b98882620007ae565b845260208401935060408301925050600181019050620005a3565b5050509392505050565b6000620005f5620005ef8462000a15565b6200098e565b905080838252602082019050828560408602820111156200061557600080fd5b60005b858110156200064957816200062e888262000801565b84526020840193506040830192505060018101905062000618565b5050509392505050565b60006200066a620006648462000a44565b6200098e565b905080838252602082019050828560208602820111156200068a57600080fd5b60005b85811015620006d957815167ffffffffffffffff811115620006ae57600080fd5b808601620006bd898262000854565b855260208501945060208401935050506001810190506200068d565b5050509392505050565b600081519050620006f48162000bb1565b92915050565b600082601f8301126200070c57600080fd5b81516200071e848260208601620004f4565b91505092915050565b600082601f8301126200073957600080fd5b81516200074b84826020860162000569565b91505092915050565b600082601f8301126200076657600080fd5b815162000778848260208601620005de565b91505092915050565b600082601f8301126200079357600080fd5b8151620007a584826020860162000653565b91505092915050565b600060408284031215620007c157600080fd5b620007cd60406200098e565b90506000620007df84828501620006e3565b6000830152506020620007f584828501620008c0565b60208301525092915050565b6000604082840312156200081457600080fd5b6200082060406200098e565b905060006200083284828501620006e3565b60008301525060206200084884828501620006e3565b60208301525092915050565b6000604082840312156200086757600080fd5b6200087360406200098e565b905060006200088584828501620006e3565b600083015250602082015167ffffffffffffffff811115620008a657600080fd5b620008b484828501620006fa565b60208301525092915050565b600081519050620008d18162000bcb565b92915050565b60008060008060808587031215620008ee57600080fd5b600085015167ffffffffffffffff8111156200090957600080fd5b620009178782880162000781565b945050602085015167ffffffffffffffff8111156200093557600080fd5b620009438782880162000754565b935050604085015167ffffffffffffffff8111156200096157600080fd5b6200096f8782880162000727565b92505060606200098287828801620006e3565b91505092959194509250565b60006200099a620009ad565b9050620009a8828262000abe565b919050565b6000604051905090565b600067ffffffffffffffff821115620009d557620009d462000b71565b5b602082029050602081019050919050565b600067ffffffffffffffff82111562000a045762000a0362000b71565b5b602082029050602081019050919050565b600067ffffffffffffffff82111562000a335762000a3262000b71565b5b602082029050602081019050919050565b600067ffffffffffffffff82111562000a625762000a6162000b71565b5b602082029050602081019050919050565b600062000a808262000a87565b9050919050565b600073ffffffffffffffffffffffffffffffffffffffff82169050919050565b6000819050919050565b600060ff82169050919050565b62000ac98262000ba0565b810181811067ffffffffffffffff8211171562000aeb5762000aea62000b71565b5b80604052505050565b600062000b018262000aa7565b91507fffffffffffffffffffffffffffffffffffffffffffffffffffffffffffffffff82141562000b375762000b3662000b42565b5b600182019050919050565b7f4e487b7100000000000000000000000000000000000000000000000000000000600052601160045260246000fd5b7f4e487b7100000000000000000000000000000000000000000000000000000000600052604160045260246000fd5b6000601f19601f8301169050919050565b62000bbc8162000a73565b811462000bc857600080fd5b50565b62000bd68162000ab1565b811462000be257600080fd5b50565b610cd38062000bf56000396000f3fe608060405234801561001057600080fd5b50600436106100415760003560e01c806321670f2214610046578063893d20e814610062578063e1e4937a14610080575b600080fd5b610060600480360381019061005b91906108b8565b61009c565b005b61006a610163565b60405161007791906109e6565b60405180910390f35b61009a600480360381019061009591906108f4565b61018c565b005b6000600260008473ffffffffffffffffffffffffffffffffffffffff1673ffffffffffffffffffffffffffffffffffffffff16815260200190815260200160002060009054906101000a900473ffffffffffffffffffffffffffffffffffffffff16905060008073ffffffffffffffffffffffffffffffffffffffff168273ffffffffffffffffffffffffffffffffffffffff1614159050801561015d5761015c826002600a8661014d9190610aa9565b6101579190610ada565b61009c565b5b50505050565b60008060009054906101000a900473ffffffffffffffffffffffffffffffffffffffff16905090565b600160009054906101000a900473ffffffffffffffffffffffffffffffffffffffff1673ffffffffffffffffffffffffffffffffffffffff163373ffffffffffffffffffffffffffffffffffffffff16146101e657600080fd5b6000600260008573ffffffffffffffffffffffffffffffffffffffff1673ffffffffffffffffffffffffffffffffffffffff16815260200190815260200160002060009054906101000a900473ffffffffffffffffffffffffffffffffffffffff1690506000600360008373ffffffffffffffffffffffffffffffffffffffff1673ffffffffffffffffffffffffffffffffffffffff16815260200190815260200160002080548060200260200160405190810160405280929190818152602001828054801561030b57602002820191906000526020600020905b8160009054906101000a900473ffffffffffffffffffffffffffffffffffffffff1673ffffffffffffffffffffffffffffffffffffffff16815260200190600101908083116102c1575b505050505090506000600182516103229190610b34565b67ffffffffffffffff811115610361577f4e487b7100000000000000000000000000000000000000000000000000000000600052604160045260246000fd5b60405190808252806020026020018201604052801561038f5781602001602082028036833780820191505090505b5090506000805b600184516103a49190610b34565b8110156104f4578773ffffffffffffffffffffffffffffffffffffffff168482815181106103fb577f4e487b7100000000000000000000000000000000000000000000000000000000600052603260045260246000fd5b602002602001015173ffffffffffffffffffffffffffffffffffffffff16146104e157838181518110610457577f4e487b7100000000000000000000000000000000000000000000000000000000600052603260045260246000fd5b6020026020010151838381518110610498577f4e487b7100000000000000000000000000000000000000000000000000000000600052603260045260246000fd5b602002602001019073ffffffffffffffffffffffffffffffffffffffff16908173ffffffffffffffffffffffffffffffffffffffff168152505081806104dd90610bb1565b9250505b80806104ec90610bb1565b915050610396565b5081600360008673ffffffffffffffffffffffffffffffffffffffff1673ffffffffffffffffffffffffffffffffffffffff16815260200190815260200160002090805190602001906105489291906107d2565b5084600260008973ffffffffffffffffffffffffffffffffffffffff1673ffffffffffffffffffffffffffffffffffffffff16815260200190815260200160002060006101000a81548173ffffffffffffffffffffffffffffffffffffffff021916908373ffffffffffffffffffffffffffffffffffffffff160217905550600360008673ffffffffffffffffffffffffffffffffffffffff1673ffffffffffffffffffffffffffffffffffffffff168152602001908152602001600020879080600181540180825580915050600190039060005260206000200160009091909190916101000a81548173ffffffffffffffffffffffffffffffffffffffff021916908373ffffffffffffffffffffffffffffffffffffffff16021790555085600460008973ffffffffffffffffffffffffffffffffffffffff1673ffffffffffffffffffffffffffffffffffffffff16815260200190815260200160002060006101000a81548160ff021916908360ff1602179055506000600360008773ffffffffffffffffffffffffffffffffffffffff1673ffffffffffffffffffffffffffffffffffffffff16815260200190815260200160002080548060200260200160405190810160405280929190818152602001828054801561078057602002820191906000526020600020905b8160009054906101000a900473ffffffffffffffffffffffffffffffffffffffff1673ffffffffffffffffffffffffffffffffffffffff1681526020019060010190808311610736575b505050505090507f57a9735297acfcbb8d7ea70579f6dc3a062be2c48fcc36f16ae98775110392048888888489886040516107c096959493929190610a01565b60405180910390a15050505050505050565b82805482825590600052602060002090810192821561084b579160200282015b8281111561084a5782518260006101000a81548173ffffffffffffffffffffffffffffffffffffffff021916908373ffffffffffffffffffffffffffffffffffffffff160217905550916020019190600101906107f2565b5b509050610858919061085c565b5090565b5b8082111561087557600081600090555060010161085d565b5090565b60008135905061088881610c58565b92915050565b60008135905061089d81610c6f565b92915050565b6000813590506108b281610c86565b92915050565b600080604083850312156108cb57600080fd5b60006108d985828601610879565b92505060206108ea8582860161088e565b9150509250929050565b60008060006060848603121561090957600080fd5b600061091786828701610879565b9350506020610928868287016108a3565b925050604061093986828701610879565b9150509250925092565b600061094f838361095b565b60208301905092915050565b61096481610b68565b82525050565b61097381610b68565b82525050565b600061098482610a80565b61098e8185610a98565b935061099983610a70565b8060005b838110156109ca5781516109b18882610943565b97506109bc83610a8b565b92505060018101905061099d565b5085935050505092915050565b6109e081610ba4565b82525050565b60006020820190506109fb600083018461096a565b92915050565b600060c082019050610a16600083018961096a565b610a2360208301886109d7565b610a30604083018761096a565b8181036060830152610a428186610979565b9050610a51608083018561096a565b81810360a0830152610a638184610979565b9050979650505050505050565b6000819050602082019050919050565b600081519050919050565b6000602082019050919050565b600082825260208201905092915050565b6000610ab482610b9a565b9150610abf83610b9a565b925082610acf57610ace610c29565b5b828204905092915050565b6000610ae582610b9a565b9150610af083610b9a565b9250817fffffffffffffffffffffffffffffffffffffffffffffffffffffffffffffffff0483118215151615610b2957610b28610bfa565b5b828202905092915050565b6000610b3f82610b9a565b9150610b4a83610b9a565b925082821015610b5d57610b5c610bfa565b5b828203905092915050565b6000610b7382610b7a565b9050919050565b600073ffffffffffffffffffffffffffffffffffffffff82169050919050565b6000819050919050565b600060ff82169050919050565b6000610bbc82610b9a565b91507fffffffffffffffffffffffffffffffffffffffffffffffffffffffffffffffff821415610bef57610bee610bfa565b5b600182019050919050565b7f4e487b7100000000000000000000000000000000000000000000000000000000600052601160045260246000fd5b7f4e487b7100000000000000000000000000000000000000000000000000000000600052601260045260246000fd5b610c6181610b68565b8114610c6c57600080fd5b50565b610c7881610b9a565b8114610c8357600080fd5b50565b610c8f81610ba4565b8114610c9a57600080fd5b5056fea264697066735822122089aaa49fc1febcfbb1def29e75b43c465d6e6464f7a3276424a04cdb6c49a9e864736f6c63430008040033",
  "linkReferences": {},
  "deployedLinkReferences": {}
}