{
  "_format": "hh-sol-artifact-1",
  "contractName": "HRSTest",
  "sourceName": "contracts/HRS.sol",
  "abi": [
    {
      "inputs": [
        {
          "components": [
            {
              "internalType": "address",
              "name": "superior",
              "type": "address"
            },
            {
              "internalType": "address[]",
              "name": "inferiors",
              "type": "address[]"
            }
          ],
          "internalType": "struct SuperiorToInferiorsDTO[]",
          "name": "_superiorToInferiors",
          "type": "tuple[]"
        },
        {
          "components": [
            {
              "internalType": "address",
              "name": "inferior",
              "type": "address"
            },
            {
              "internalType": "address",
              "name": "superior",
              "type": "address"
            }
          ],
          "internalType": "struct InferiorToSuperiorDTO[]",
          "name": "_inferiorToSuperior",
          "type": "tuple[]"
        },
        {
          "components": [
            {
              "internalType": "address",
              "name": "agentAddress",
              "type": "address"
            },
            {
              "internalType": "uint8",
              "name": "level",
              "type": "uint8"
            }
          ],
          "internalType": "struct AgentLevelDTO[]",
          "name": "_agentLevels",
          "type": "tuple[]"
        },
        {
          "internalType": "address",
          "name": "_principal",
          "type": "address"
        }
      ],
      "stateMutability": "nonpayable",
      "type": "constructor"
    },
    {
      "anonymous": false,
      "inputs": [
        {
          "indexed": false,
          "internalType": "address",
          "name": "agent",
          "type": "address"
        },
        {
          "indexed": false,
          "internalType": "uint8",
          "name": "newLevel",
          "type": "uint8"
        },
        {
          "indexed": false,
          "internalType": "address",
          "name": "newSuperior",
          "type": "address"
        },
        {
          "indexed": false,
          "internalType": "address[]",
          "name": "newSuperiorInferiors",
          "type": "address[]"
        },
        {
          "indexed": false,
          "internalType": "address",
          "name": "oldSuperior",
          "type": "address"
        },
        {
          "indexed": false,
          "internalType": "address[]",
          "name": "oldSuperiorInferiors",
          "type": "address[]"
        }
      ],
      "name": "onPromote",
      "type": "event"
    },
    {
      "inputs": [
        {
          "internalType": "address",
          "name": "superior",
          "type": "address"
        }
      ],
      "name": "getInferiorsOf",
      "outputs": [
        {
          "internalType": "address[]",
          "name": "",
          "type": "address[]"
        }
      ],
      "stateMutability": "view",
      "type": "function"
    },
    {
      "inputs": [
        {
          "internalType": "address",
          "name": "agent",
          "type": "address"
        }
      ],
      "name": "getLevelOf",
      "outputs": [
        {
          "internalType": "uint8",
          "name": "",
          "type": "uint8"
        }
      ],
      "stateMutability": "view",
      "type": "function"
    },
    {
      "inputs": [],
      "name": "getOwner",
      "outputs": [
        {
          "internalType": "address",
          "name": "",
          "type": "address"
        }
      ],
      "stateMutability": "view",
      "type": "function"
    },
    {
      "inputs": [
        {
          "internalType": "address",
          "name": "inferior",
          "type": "address"
        }
      ],
      "name": "getSuperiorOf",
      "outputs": [
        {
          "internalType": "address",
          "name": "",
          "type": "address"
        }
      ],
      "stateMutability": "view",
      "type": "function"
    },
    {
      "inputs": [
        {
          "internalType": "address",
          "name": "_agent",
          "type": "address"
        },
        {
          "internalType": "uint8",
          "name": "_newLevel",
          "type": "uint8"
        },
        {
          "internalType": "address",
          "name": "_newSuperior",
          "type": "address"
        }
      ],
      "name": "promote",
      "outputs": [],
      "stateMutability": "nonpayable",
      "type": "function"
    },
    {
      "inputs": [
        {
          "internalType": "address",
          "name": "_agent",
          "type": "address"
        },
        {
          "internalType": "uint256",
          "name": "amount",
          "type": "uint256"
        }
      ],
      "name": "reward",
      "outputs": [],
      "stateMutability": "nonpayable",
      "type": "function"
    }
  ],
  "bytecode": "0x60806040523480156200001157600080fd5b5060405162001b7338038062001b738339818101604052810190620000379190620008df565b83838383336000806101000a81548173ffffffffffffffffffffffffffffffffffffffff021916908373ffffffffffffffffffffffffffffffffffffffff16021790555080600160006101000a81548173ffffffffffffffffffffffffffffffffffffffff021916908373ffffffffffffffffffffffffffffffffffffffff160217905550620000ce8484620000ed60201b60201c565b620000df826200033960201b60201c565b505050505050505062000bed565b60005b8251811015620001fc57600083828151811062000136577f4e487b7100000000000000000000000000000000000000000000000000000000600052603260045260246000fd5b6020026020010151600001519050600084838151811062000180577f4e487b7100000000000000000000000000000000000000000000000000000000600052603260045260246000fd5b602002602001015160200151905080600360008473ffffffffffffffffffffffffffffffffffffffff1673ffffffffffffffffffffffffffffffffffffffff1681526020019081526020016000209080519060200190620001e39291906200044e565b5050508080620001f39062000afc565b915050620000f0565b5060005b81518110156200033457600082828151811062000246577f4e487b7100000000000000000000000000000000000000000000000000000000600052603260045260246000fd5b6020026020010151600001519050600083838151811062000290577f4e487b7100000000000000000000000000000000000000000000000000000000600052603260045260246000fd5b602002602001015160200151905080600260008473ffffffffffffffffffffffffffffffffffffffff1673ffffffffffffffffffffffffffffffffffffffff16815260200190815260200160002060006101000a81548173ffffffffffffffffffffffffffffffffffffffff021916908373ffffffffffffffffffffffffffffffffffffffff160217905550505080806200032b9062000afc565b91505062000200565b505050565b60005b81518110156200044a57600082828151811062000382577f4e487b7100000000000000000000000000000000000000000000000000000000600052603260045260246000fd5b60200260200101516000015190506000838381518110620003cc577f4e487b7100000000000000000000000000000000000000000000000000000000600052603260045260246000fd5b602002602001015160200151905080600460008473ffffffffffffffffffffffffffffffffffffffff1673ffffffffffffffffffffffffffffffffffffffff16815260200190815260200160002060006101000a81548160ff021916908360ff16021790555050508080620004419062000afc565b9150506200033c565b5050565b828054828255906000526020600020908101928215620004ca579160200282015b82811115620004c95782518260006101000a81548173ffffffffffffffffffffffffffffffffffffffff021916908373ffffffffffffffffffffffffffffffffffffffff160217905550916020019190600101906200046f565b5b509050620004d99190620004dd565b5090565b5b80821115620004f8576000816000905550600101620004de565b5090565b6000620005136200050d84620009bf565b62000996565b905080838252602082019050828560208602820111156200053357600080fd5b60005b858110156200056757816200054c8882620006eb565b84526020840193506020830192505060018101905062000536565b5050509392505050565b6000620005886200058284620009ee565b62000996565b90508083825260208201905082856040860282011115620005a857600080fd5b60005b85811015620005dc5781620005c18882620007b6565b845260208401935060408301925050600181019050620005ab565b5050509392505050565b6000620005fd620005f78462000a1d565b62000996565b905080838252602082019050828560408602820111156200061d57600080fd5b60005b8581101562000651578162000636888262000809565b84526020840193506040830192505060018101905062000620565b5050509392505050565b6000620006726200066c8462000a4c565b62000996565b905080838252602082019050828560208602820111156200069257600080fd5b60005b85811015620006e157815167ffffffffffffffff811115620006b657600080fd5b808601620006c589826200085c565b8552602085019450602084019350505060018101905062000695565b5050509392505050565b600081519050620006fc8162000bb9565b92915050565b600082601f8301126200071457600080fd5b815162000726848260208601620004fc565b91505092915050565b600082601f8301126200074157600080fd5b81516200075384826020860162000571565b91505092915050565b600082601f8301126200076e57600080fd5b815162000780848260208601620005e6565b91505092915050565b600082601f8301126200079b57600080fd5b8151620007ad8482602086016200065b565b91505092915050565b600060408284031215620007c957600080fd5b620007d5604062000996565b90506000620007e784828501620006eb565b6000830152506020620007fd84828501620008c8565b60208301525092915050565b6000604082840312156200081c57600080fd5b62000828604062000996565b905060006200083a84828501620006eb565b60008301525060206200085084828501620006eb565b60208301525092915050565b6000604082840312156200086f57600080fd5b6200087b604062000996565b905060006200088d84828501620006eb565b600083015250602082015167ffffffffffffffff811115620008ae57600080fd5b620008bc8482850162000702565b60208301525092915050565b600081519050620008d98162000bd3565b92915050565b60008060008060808587031215620008f657600080fd5b600085015167ffffffffffffffff8111156200091157600080fd5b6200091f8782880162000789565b945050602085015167ffffffffffffffff8111156200093d57600080fd5b6200094b878288016200075c565b935050604085015167ffffffffffffffff8111156200096957600080fd5b62000977878288016200072f565b92505060606200098a87828801620006eb565b91505092959194509250565b6000620009a2620009b5565b9050620009b0828262000ac6565b919050565b6000604051905090565b600067ffffffffffffffff821115620009dd57620009dc62000b79565b5b602082029050602081019050919050565b600067ffffffffffffffff82111562000a0c5762000a0b62000b79565b5b602082029050602081019050919050565b600067ffffffffffffffff82111562000a3b5762000a3a62000b79565b5b602082029050602081019050919050565b600067ffffffffffffffff82111562000a6a5762000a6962000b79565b5b602082029050602081019050919050565b600062000a888262000a8f565b9050919050565b600073ffffffffffffffffffffffffffffffffffffffff82169050919050565b6000819050919050565b600060ff82169050919050565b62000ad18262000ba8565b810181811067ffffffffffffffff8211171562000af35762000af262000b79565b5b80604052505050565b600062000b098262000aaf565b91507fffffffffffffffffffffffffffffffffffffffffffffffffffffffffffffffff82141562000b3f5762000b3e62000b4a565b5b600182019050919050565b7f4e487b7100000000000000000000000000000000000000000000000000000000600052601160045260246000fd5b7f4e487b7100000000000000000000000000000000000000000000000000000000600052604160045260246000fd5b6000601f19601f8301169050919050565b62000bc48162000a7b565b811462000bd057600080fd5b50565b62000bde8162000ab9565b811462000bea57600080fd5b50565b610f768062000bfd6000396000f3fe608060405234801561001057600080fd5b50600436106100625760003560e01c806321670f22146100675780634fadedce14610083578063893d20e8146100b3578063c96959d9146100d1578063e1e4937a14610101578063f36463351461011d575b600080fd5b610081600480360381019061007c9190610b1e565b61014d565b005b61009d60048036038101906100989190610af5565b610214565b6040516100aa9190610c4c565b60405180910390f35b6100bb61027d565b6040516100c89190610c4c565b60405180910390f35b6100eb60048036038101906100e69190610af5565b6102a6565b6040516100f89190610cd6565b60405180910390f35b61011b60048036038101906101169190610b5a565b610373565b005b61013760048036038101906101329190610af5565b6109b9565b6040516101449190610cf8565b60405180910390f35b6000600260008473ffffffffffffffffffffffffffffffffffffffff1673ffffffffffffffffffffffffffffffffffffffff16815260200190815260200160002060009054906101000a900473ffffffffffffffffffffffffffffffffffffffff16905060008073ffffffffffffffffffffffffffffffffffffffff168273ffffffffffffffffffffffffffffffffffffffff1614159050801561020e5761020d826002600a866101fe9190610d4c565b6102089190610d7d565b61014d565b5b50505050565b6000600260008373ffffffffffffffffffffffffffffffffffffffff1673ffffffffffffffffffffffffffffffffffffffff16815260200190815260200160002060009054906101000a900473ffffffffffffffffffffffffffffffffffffffff169050919050565b60008060009054906101000a900473ffffffffffffffffffffffffffffffffffffffff16905090565b6060600360008373ffffffffffffffffffffffffffffffffffffffff1673ffffffffffffffffffffffffffffffffffffffff16815260200190815260200160002080548060200260200160405190810160405280929190818152602001828054801561036757602002820191906000526020600020905b8160009054906101000a900473ffffffffffffffffffffffffffffffffffffffff1673ffffffffffffffffffffffffffffffffffffffff168152602001906001019080831161031d575b50505050509050919050565b600160009054906101000a900473ffffffffffffffffffffffffffffffffffffffff1673ffffffffffffffffffffffffffffffffffffffff163373ffffffffffffffffffffffffffffffffffffffff16146103cd57600080fd5b6000600260008573ffffffffffffffffffffffffffffffffffffffff1673ffffffffffffffffffffffffffffffffffffffff16815260200190815260200160002060009054906101000a900473ffffffffffffffffffffffffffffffffffffffff1690506000600360008373ffffffffffffffffffffffffffffffffffffffff1673ffffffffffffffffffffffffffffffffffffffff1681526020019081526020016000208054806020026020016040519081016040528092919081815260200182805480156104f257602002820191906000526020600020905b8160009054906101000a900473ffffffffffffffffffffffffffffffffffffffff1673ffffffffffffffffffffffffffffffffffffffff16815260200190600101908083116104a8575b505050505090506000600182516105099190610dd7565b67ffffffffffffffff811115610548577f4e487b7100000000000000000000000000000000000000000000000000000000600052604160045260246000fd5b6040519080825280602002602001820160405280156105765781602001602082028036833780820191505090505b5090506000805b6001845161058b9190610dd7565b8110156106db578773ffffffffffffffffffffffffffffffffffffffff168482815181106105e2577f4e487b7100000000000000000000000000000000000000000000000000000000600052603260045260246000fd5b602002602001015173ffffffffffffffffffffffffffffffffffffffff16146106c85783818151811061063e577f4e487b7100000000000000000000000000000000000000000000000000000000600052603260045260246000fd5b602002602001015183838151811061067f577f4e487b7100000000000000000000000000000000000000000000000000000000600052603260045260246000fd5b602002602001019073ffffffffffffffffffffffffffffffffffffffff16908173ffffffffffffffffffffffffffffffffffffffff168152505081806106c490610e54565b9250505b80806106d390610e54565b91505061057d565b5081600360008673ffffffffffffffffffffffffffffffffffffffff1673ffffffffffffffffffffffffffffffffffffffff168152602001908152602001600020908051906020019061072f929190610a0f565b5084600260008973ffffffffffffffffffffffffffffffffffffffff1673ffffffffffffffffffffffffffffffffffffffff16815260200190815260200160002060006101000a81548173ffffffffffffffffffffffffffffffffffffffff021916908373ffffffffffffffffffffffffffffffffffffffff160217905550600360008673ffffffffffffffffffffffffffffffffffffffff1673ffffffffffffffffffffffffffffffffffffffff168152602001908152602001600020879080600181540180825580915050600190039060005260206000200160009091909190916101000a81548173ffffffffffffffffffffffffffffffffffffffff021916908373ffffffffffffffffffffffffffffffffffffffff16021790555085600460008973ffffffffffffffffffffffffffffffffffffffff1673ffffffffffffffffffffffffffffffffffffffff16815260200190815260200160002060006101000a81548160ff021916908360ff1602179055506000600360008773ffffffffffffffffffffffffffffffffffffffff1673ffffffffffffffffffffffffffffffffffffffff16815260200190815260200160002080548060200260200160405190810160405280929190818152602001828054801561096757602002820191906000526020600020905b8160009054906101000a900473ffffffffffffffffffffffffffffffffffffffff1673ffffffffffffffffffffffffffffffffffffffff168152602001906001019080831161091d575b505050505090507f57a9735297acfcbb8d7ea70579f6dc3a062be2c48fcc36f16ae98775110392048888888489886040516109a796959493929190610c67565b60405180910390a15050505050505050565b6000600460008373ffffffffffffffffffffffffffffffffffffffff1673ffffffffffffffffffffffffffffffffffffffff16815260200190815260200160002060009054906101000a900460ff169050919050565b828054828255906000526020600020908101928215610a88579160200282015b82811115610a875782518260006101000a81548173ffffffffffffffffffffffffffffffffffffffff021916908373ffffffffffffffffffffffffffffffffffffffff16021790555091602001919060010190610a2f565b5b509050610a959190610a99565b5090565b5b80821115610ab2576000816000905550600101610a9a565b5090565b600081359050610ac581610efb565b92915050565b600081359050610ada81610f12565b92915050565b600081359050610aef81610f29565b92915050565b600060208284031215610b0757600080fd5b6000610b1584828501610ab6565b91505092915050565b60008060408385031215610b3157600080fd5b6000610b3f85828601610ab6565b9250506020610b5085828601610acb565b9150509250929050565b600080600060608486031215610b6f57600080fd5b6000610b7d86828701610ab6565b9350506020610b8e86828701610ae0565b9250506040610b9f86828701610ab6565b9150509250925092565b6000610bb58383610bc1565b60208301905092915050565b610bca81610e0b565b82525050565b610bd981610e0b565b82525050565b6000610bea82610d23565b610bf48185610d3b565b9350610bff83610d13565b8060005b83811015610c30578151610c178882610ba9565b9750610c2283610d2e565b925050600181019050610c03565b5085935050505092915050565b610c4681610e47565b82525050565b6000602082019050610c616000830184610bd0565b92915050565b600060c082019050610c7c6000830189610bd0565b610c896020830188610c3d565b610c966040830187610bd0565b8181036060830152610ca88186610bdf565b9050610cb76080830185610bd0565b81810360a0830152610cc98184610bdf565b9050979650505050505050565b60006020820190508181036000830152610cf08184610bdf565b905092915050565b6000602082019050610d0d6000830184610c3d565b92915050565b6000819050602082019050919050565b600081519050919050565b6000602082019050919050565b600082825260208201905092915050565b6000610d5782610e3d565b9150610d6283610e3d565b925082610d7257610d71610ecc565b5b828204905092915050565b6000610d8882610e3d565b9150610d9383610e3d565b9250817fffffffffffffffffffffffffffffffffffffffffffffffffffffffffffffffff0483118215151615610dcc57610dcb610e9d565b5b828202905092915050565b6000610de282610e3d565b9150610ded83610e3d565b925082821015610e0057610dff610e9d565b5b828203905092915050565b6000610e1682610e1d565b9050919050565b600073ffffffffffffffffffffffffffffffffffffffff82169050919050565b6000819050919050565b600060ff82169050919050565b6000610e5f82610e3d565b91507fffffffffffffffffffffffffffffffffffffffffffffffffffffffffffffffff821415610e9257610e91610e9d565b5b600182019050919050565b7f4e487b7100000000000000000000000000000000000000000000000000000000600052601160045260246000fd5b7f4e487b7100000000000000000000000000000000000000000000000000000000600052601260045260246000fd5b610f0481610e0b565b8114610f0f57600080fd5b50565b610f1b81610e3d565b8114610f2657600080fd5b50565b610f3281610e47565b8114610f3d57600080fd5b5056fea2646970667358221220c22f9943fbad730712f05a2a147d962f90b9cc43736a863b8f43cb2d55e8548d64736f6c63430008040033",
  "linkReferences": {},
  "deployedLinkReferences": {}
}