{
  "_format": "hh-sol-artifact-1",
  "contractName": "HRSTest",
  "sourceName": "contracts/HRS.sol",
  "abi": [
    {
      "inputs": [
        {
          "components": [
            {
              "internalType": "address",
              "name": "superior",
              "type": "address"
            },
            {
              "internalType": "address[]",
              "name": "inferiors",
              "type": "address[]"
            }
          ],
          "internalType": "struct SuperiorToInferiorsDTO[]",
          "name": "_superiorToInferiors",
          "type": "tuple[]"
        },
        {
          "components": [
            {
              "internalType": "address",
              "name": "inferior",
              "type": "address"
            },
            {
              "internalType": "address",
              "name": "superior",
              "type": "address"
            }
          ],
          "internalType": "struct InferiorToSuperiorDTO[]",
          "name": "_inferiorToSuperior",
          "type": "tuple[]"
        },
        {
          "components": [
            {
              "internalType": "address",
              "name": "agentAddress",
              "type": "address"
            },
            {
              "internalType": "uint8",
              "name": "level",
              "type": "uint8"
            }
          ],
          "internalType": "struct AgentLevelDTO[]",
          "name": "_agentLevels",
          "type": "tuple[]"
        },
        {
          "internalType": "address",
          "name": "_principal",
          "type": "address"
        }
      ],
      "stateMutability": "nonpayable",
      "type": "constructor"
    },
    {
      "anonymous": false,
      "inputs": [
        {
          "indexed": false,
          "internalType": "address",
          "name": "agent",
          "type": "address"
        },
        {
          "indexed": false,
          "internalType": "uint8",
          "name": "newLevel",
          "type": "uint8"
        },
        {
          "indexed": false,
          "internalType": "address",
          "name": "newSuperior",
          "type": "address"
        },
        {
          "indexed": false,
          "internalType": "address[]",
          "name": "newSuperiorInferiors",
          "type": "address[]"
        },
        {
          "indexed": false,
          "internalType": "address",
          "name": "oldSuperior",
          "type": "address"
        },
        {
          "indexed": false,
          "internalType": "address[]",
          "name": "oldSuperiorInferiors",
          "type": "address[]"
        }
      ],
      "name": "onPromote",
      "type": "event"
    },
    {
      "inputs": [
        {
          "internalType": "address",
          "name": "superior",
          "type": "address"
        }
      ],
      "name": "getInferiorsOf",
      "outputs": [
        {
          "internalType": "address[]",
          "name": "",
          "type": "address[]"
        }
      ],
      "stateMutability": "view",
      "type": "function"
    },
    {
      "inputs": [
        {
          "internalType": "address",
          "name": "agent",
          "type": "address"
        }
      ],
      "name": "getLevelOf",
      "outputs": [
        {
          "internalType": "uint8",
          "name": "",
          "type": "uint8"
        }
      ],
      "stateMutability": "view",
      "type": "function"
    },
    {
      "inputs": [],
      "name": "getOwner",
      "outputs": [
        {
          "internalType": "address",
          "name": "",
          "type": "address"
        }
      ],
      "stateMutability": "view",
      "type": "function"
    },
    {
      "inputs": [
        {
          "internalType": "address",
          "name": "inferior",
          "type": "address"
        }
      ],
      "name": "getSuperiorOf",
      "outputs": [
        {
          "internalType": "address",
          "name": "",
          "type": "address"
        }
      ],
      "stateMutability": "view",
      "type": "function"
    },
    {
      "inputs": [
        {
          "internalType": "address",
          "name": "_agent",
          "type": "address"
        },
        {
          "internalType": "uint8",
          "name": "_newLevel",
          "type": "uint8"
        },
        {
          "internalType": "address",
          "name": "_newSuperior",
          "type": "address"
        }
      ],
      "name": "promote",
      "outputs": [],
      "stateMutability": "nonpayable",
      "type": "function"
    },
    {
      "inputs": [
        {
          "internalType": "address",
          "name": "_agent",
          "type": "address"
        },
        {
          "internalType": "uint256",
          "name": "amount",
          "type": "uint256"
        }
      ],
      "name": "reward",
      "outputs": [],
      "stateMutability": "nonpayable",
      "type": "function"
    }
  ],
  "bytecode": "0x60806040523480156200001157600080fd5b5060405162001d6138038062001d618339818101604052810190620000379190620008df565b83838383336000806101000a81548173ffffffffffffffffffffffffffffffffffffffff021916908373ffffffffffffffffffffffffffffffffffffffff16021790555080600160006101000a81548173ffffffffffffffffffffffffffffffffffffffff021916908373ffffffffffffffffffffffffffffffffffffffff160217905550620000ce8484620000ed60201b60201c565b620000df826200033960201b60201c565b505050505050505062000bed565b60005b8251811015620001fc57600083828151811062000136577f4e487b7100000000000000000000000000000000000000000000000000000000600052603260045260246000fd5b6020026020010151600001519050600084838151811062000180577f4e487b7100000000000000000000000000000000000000000000000000000000600052603260045260246000fd5b602002602001015160200151905080600360008473ffffffffffffffffffffffffffffffffffffffff1673ffffffffffffffffffffffffffffffffffffffff1681526020019081526020016000209080519060200190620001e39291906200044e565b5050508080620001f39062000afc565b915050620000f0565b5060005b81518110156200033457600082828151811062000246577f4e487b7100000000000000000000000000000000000000000000000000000000600052603260045260246000fd5b6020026020010151600001519050600083838151811062000290577f4e487b7100000000000000000000000000000000000000000000000000000000600052603260045260246000fd5b602002602001015160200151905080600260008473ffffffffffffffffffffffffffffffffffffffff1673ffffffffffffffffffffffffffffffffffffffff16815260200190815260200160002060006101000a81548173ffffffffffffffffffffffffffffffffffffffff021916908373ffffffffffffffffffffffffffffffffffffffff160217905550505080806200032b9062000afc565b91505062000200565b505050565b60005b81518110156200044a57600082828151811062000382577f4e487b7100000000000000000000000000000000000000000000000000000000600052603260045260246000fd5b60200260200101516000015190506000838381518110620003cc577f4e487b7100000000000000000000000000000000000000000000000000000000600052603260045260246000fd5b602002602001015160200151905080600460008473ffffffffffffffffffffffffffffffffffffffff1673ffffffffffffffffffffffffffffffffffffffff16815260200190815260200160002060006101000a81548160ff021916908360ff16021790555050508080620004419062000afc565b9150506200033c565b5050565b828054828255906000526020600020908101928215620004ca579160200282015b82811115620004c95782518260006101000a81548173ffffffffffffffffffffffffffffffffffffffff021916908373ffffffffffffffffffffffffffffffffffffffff160217905550916020019190600101906200046f565b5b509050620004d99190620004dd565b5090565b5b80821115620004f8576000816000905550600101620004de565b5090565b6000620005136200050d84620009bf565b62000996565b905080838252602082019050828560208602820111156200053357600080fd5b60005b858110156200056757816200054c8882620006eb565b84526020840193506020830192505060018101905062000536565b5050509392505050565b6000620005886200058284620009ee565b62000996565b90508083825260208201905082856040860282011115620005a857600080fd5b60005b85811015620005dc5781620005c18882620007b6565b845260208401935060408301925050600181019050620005ab565b5050509392505050565b6000620005fd620005f78462000a1d565b62000996565b905080838252602082019050828560408602820111156200061d57600080fd5b60005b8581101562000651578162000636888262000809565b84526020840193506040830192505060018101905062000620565b5050509392505050565b6000620006726200066c8462000a4c565b62000996565b905080838252602082019050828560208602820111156200069257600080fd5b60005b85811015620006e157815167ffffffffffffffff811115620006b657600080fd5b808601620006c589826200085c565b8552602085019450602084019350505060018101905062000695565b5050509392505050565b600081519050620006fc8162000bb9565b92915050565b600082601f8301126200071457600080fd5b815162000726848260208601620004fc565b91505092915050565b600082601f8301126200074157600080fd5b81516200075384826020860162000571565b91505092915050565b600082601f8301126200076e57600080fd5b815162000780848260208601620005e6565b91505092915050565b600082601f8301126200079b57600080fd5b8151620007ad8482602086016200065b565b91505092915050565b600060408284031215620007c957600080fd5b620007d5604062000996565b90506000620007e784828501620006eb565b6000830152506020620007fd84828501620008c8565b60208301525092915050565b6000604082840312156200081c57600080fd5b62000828604062000996565b905060006200083a84828501620006eb565b60008301525060206200085084828501620006eb565b60208301525092915050565b6000604082840312156200086f57600080fd5b6200087b604062000996565b905060006200088d84828501620006eb565b600083015250602082015167ffffffffffffffff811115620008ae57600080fd5b620008bc8482850162000702565b60208301525092915050565b600081519050620008d98162000bd3565b92915050565b60008060008060808587031215620008f657600080fd5b600085015167ffffffffffffffff8111156200091157600080fd5b6200091f8782880162000789565b945050602085015167ffffffffffffffff8111156200093d57600080fd5b6200094b878288016200075c565b935050604085015167ffffffffffffffff8111156200096957600080fd5b62000977878288016200072f565b92505060606200098a87828801620006eb565b91505092959194509250565b6000620009a2620009b5565b9050620009b0828262000ac6565b919050565b6000604051905090565b600067ffffffffffffffff821115620009dd57620009dc62000b79565b5b602082029050602081019050919050565b600067ffffffffffffffff82111562000a0c5762000a0b62000b79565b5b602082029050602081019050919050565b600067ffffffffffffffff82111562000a3b5762000a3a62000b79565b5b602082029050602081019050919050565b600067ffffffffffffffff82111562000a6a5762000a6962000b79565b5b602082029050602081019050919050565b600062000a888262000a8f565b9050919050565b600073ffffffffffffffffffffffffffffffffffffffff82169050919050565b6000819050919050565b600060ff82169050919050565b62000ad18262000ba8565b810181811067ffffffffffffffff8211171562000af35762000af262000b79565b5b80604052505050565b600062000b098262000aaf565b91507fffffffffffffffffffffffffffffffffffffffffffffffffffffffffffffffff82141562000b3f5762000b3e62000b4a565b5b600182019050919050565b7f4e487b7100000000000000000000000000000000000000000000000000000000600052601160045260246000fd5b7f4e487b7100000000000000000000000000000000000000000000000000000000600052604160045260246000fd5b6000601f19601f8301169050919050565b62000bc48162000a7b565b811462000bd057600080fd5b50565b62000bde8162000ab9565b811462000bea57600080fd5b50565b6111648062000bfd6000396000f3fe608060405234801561001057600080fd5b50600436106100625760003560e01c806321670f22146100675780634fadedce14610083578063893d20e8146100b3578063c96959d9146100d1578063e1e4937a14610101578063f36463351461011d575b600080fd5b610081600480360381019061007c9190610c26565b61014d565b005b61009d60048036038101906100989190610bfd565b610254565b6040516100aa9190610d9c565b60405180910390f35b6100bb6102bd565b6040516100c89190610d9c565b60405180910390f35b6100eb60048036038101906100e69190610bfd565b6102e6565b6040516100f89190610e64565b60405180910390f35b61011b60048036038101906101169190610c62565b6103b3565b005b61013760048036038101906101329190610bfd565b6109f9565b6040516101449190610e86565b60405180910390f35b61018d826040518060400160405280600481526020017f676574730000000000000000000000000000000000000000000000000000000081525083610a4f565b6000600260008473ffffffffffffffffffffffffffffffffffffffff1673ffffffffffffffffffffffffffffffffffffffff16815260200190815260200160002060009054906101000a900473ffffffffffffffffffffffffffffffffffffffff16905060008073ffffffffffffffffffffffffffffffffffffffff168273ffffffffffffffffffffffffffffffffffffffff1614159050801561024e5761024d826002600a8661023e9190610ef6565b6102489190610f27565b61014d565b5b50505050565b6000600260008373ffffffffffffffffffffffffffffffffffffffff1673ffffffffffffffffffffffffffffffffffffffff16815260200190815260200160002060009054906101000a900473ffffffffffffffffffffffffffffffffffffffff169050919050565b60008060009054906101000a900473ffffffffffffffffffffffffffffffffffffffff16905090565b6060600360008373ffffffffffffffffffffffffffffffffffffffff1673ffffffffffffffffffffffffffffffffffffffff1681526020019081526020016000208054806020026020016040519081016040528092919081815260200182805480156103a757602002820191906000526020600020905b8160009054906101000a900473ffffffffffffffffffffffffffffffffffffffff1673ffffffffffffffffffffffffffffffffffffffff168152602001906001019080831161035d575b50505050509050919050565b600160009054906101000a900473ffffffffffffffffffffffffffffffffffffffff1673ffffffffffffffffffffffffffffffffffffffff163373ffffffffffffffffffffffffffffffffffffffff161461040d57600080fd5b6000600260008573ffffffffffffffffffffffffffffffffffffffff1673ffffffffffffffffffffffffffffffffffffffff16815260200190815260200160002060009054906101000a900473ffffffffffffffffffffffffffffffffffffffff1690506000600360008373ffffffffffffffffffffffffffffffffffffffff1673ffffffffffffffffffffffffffffffffffffffff16815260200190815260200160002080548060200260200160405190810160405280929190818152602001828054801561053257602002820191906000526020600020905b8160009054906101000a900473ffffffffffffffffffffffffffffffffffffffff1673ffffffffffffffffffffffffffffffffffffffff16815260200190600101908083116104e8575b505050505090506000600182516105499190610f81565b67ffffffffffffffff811115610588577f4e487b7100000000000000000000000000000000000000000000000000000000600052604160045260246000fd5b6040519080825280602002602001820160405280156105b65781602001602082028036833780820191505090505b5090506000805b600184516105cb9190610f81565b81101561071b578773ffffffffffffffffffffffffffffffffffffffff16848281518110610622577f4e487b7100000000000000000000000000000000000000000000000000000000600052603260045260246000fd5b602002602001015173ffffffffffffffffffffffffffffffffffffffff16146107085783818151811061067e577f4e487b7100000000000000000000000000000000000000000000000000000000600052603260045260246000fd5b60200260200101518383815181106106bf577f4e487b7100000000000000000000000000000000000000000000000000000000600052603260045260246000fd5b602002602001019073ffffffffffffffffffffffffffffffffffffffff16908173ffffffffffffffffffffffffffffffffffffffff1681525050818061070490611031565b9250505b808061071390611031565b9150506105bd565b5081600360008673ffffffffffffffffffffffffffffffffffffffff1673ffffffffffffffffffffffffffffffffffffffff168152602001908152602001600020908051906020019061076f929190610b17565b5084600260008973ffffffffffffffffffffffffffffffffffffffff1673ffffffffffffffffffffffffffffffffffffffff16815260200190815260200160002060006101000a81548173ffffffffffffffffffffffffffffffffffffffff021916908373ffffffffffffffffffffffffffffffffffffffff160217905550600360008673ffffffffffffffffffffffffffffffffffffffff1673ffffffffffffffffffffffffffffffffffffffff168152602001908152602001600020879080600181540180825580915050600190039060005260206000200160009091909190916101000a81548173ffffffffffffffffffffffffffffffffffffffff021916908373ffffffffffffffffffffffffffffffffffffffff16021790555085600460008973ffffffffffffffffffffffffffffffffffffffff1673ffffffffffffffffffffffffffffffffffffffff16815260200190815260200160002060006101000a81548160ff021916908360ff1602179055506000600360008773ffffffffffffffffffffffffffffffffffffffff1673ffffffffffffffffffffffffffffffffffffffff1681526020019081526020016000208054806020026020016040519081016040528092919081815260200182805480156109a757602002820191906000526020600020905b8160009054906101000a900473ffffffffffffffffffffffffffffffffffffffff1673ffffffffffffffffffffffffffffffffffffffff168152602001906001019080831161095d575b505050505090507f57a9735297acfcbb8d7ea70579f6dc3a062be2c48fcc36f16ae98775110392048888888489886040516109e796959493929190610df5565b60405180910390a15050505050505050565b6000600460008373ffffffffffffffffffffffffffffffffffffffff1673ffffffffffffffffffffffffffffffffffffffff16815260200190815260200160002060009054906101000a900460ff169050919050565b610ae9838383604051602401610a6793929190610db7565b6040516020818303038152906040527f1cdaf28a000000000000000000000000000000000000000000000000000000007bffffffffffffffffffffffffffffffffffffffffffffffffffffffff19166020820180517bffffffffffffffffffffffffffffffffffffffffffffffffffffffff8381831617835250505050610aee565b505050565b60008151905060006a636f6e736f6c652e6c6f679050602083016000808483855afa5050505050565b828054828255906000526020600020908101928215610b90579160200282015b82811115610b8f5782518260006101000a81548173ffffffffffffffffffffffffffffffffffffffff021916908373ffffffffffffffffffffffffffffffffffffffff16021790555091602001919060010190610b37565b5b509050610b9d9190610ba1565b5090565b5b80821115610bba576000816000905550600101610ba2565b5090565b600081359050610bcd816110e9565b92915050565b600081359050610be281611100565b92915050565b600081359050610bf781611117565b92915050565b600060208284031215610c0f57600080fd5b6000610c1d84828501610bbe565b91505092915050565b60008060408385031215610c3957600080fd5b6000610c4785828601610bbe565b9250506020610c5885828601610bd3565b9150509250929050565b600080600060608486031215610c7757600080fd5b6000610c8586828701610bbe565b9350506020610c9686828701610be8565b9250506040610ca786828701610bbe565b9150509250925092565b6000610cbd8383610cc9565b60208301905092915050565b610cd281610fb5565b82525050565b610ce181610fb5565b82525050565b6000610cf282610eb1565b610cfc8185610ed4565b9350610d0783610ea1565b8060005b83811015610d38578151610d1f8882610cb1565b9750610d2a83610ec7565b925050600181019050610d0b565b5085935050505092915050565b6000610d5082610ebc565b610d5a8185610ee5565b9350610d6a818560208601610ffe565b610d73816110d8565b840191505092915050565b610d8781610fe7565b82525050565b610d9681610ff1565b82525050565b6000602082019050610db16000830184610cd8565b92915050565b6000606082019050610dcc6000830186610cd8565b8181036020830152610dde8185610d45565b9050610ded6040830184610d7e565b949350505050565b600060c082019050610e0a6000830189610cd8565b610e176020830188610d8d565b610e246040830187610cd8565b8181036060830152610e368186610ce7565b9050610e456080830185610cd8565b81810360a0830152610e578184610ce7565b9050979650505050505050565b60006020820190508181036000830152610e7e8184610ce7565b905092915050565b6000602082019050610e9b6000830184610d8d565b92915050565b6000819050602082019050919050565b600081519050919050565b600081519050919050565b6000602082019050919050565b600082825260208201905092915050565b600082825260208201905092915050565b6000610f0182610fe7565b9150610f0c83610fe7565b925082610f1c57610f1b6110a9565b5b828204905092915050565b6000610f3282610fe7565b9150610f3d83610fe7565b9250817fffffffffffffffffffffffffffffffffffffffffffffffffffffffffffffffff0483118215151615610f7657610f7561107a565b5b828202905092915050565b6000610f8c82610fe7565b9150610f9783610fe7565b925082821015610faa57610fa961107a565b5b828203905092915050565b6000610fc082610fc7565b9050919050565b600073ffffffffffffffffffffffffffffffffffffffff82169050919050565b6000819050919050565b600060ff82169050919050565b60005b8381101561101c578082015181840152602081019050611001565b8381111561102b576000848401525b50505050565b600061103c82610fe7565b91507fffffffffffffffffffffffffffffffffffffffffffffffffffffffffffffffff82141561106f5761106e61107a565b5b600182019050919050565b7f4e487b7100000000000000000000000000000000000000000000000000000000600052601160045260246000fd5b7f4e487b7100000000000000000000000000000000000000000000000000000000600052601260045260246000fd5b6000601f19601f8301169050919050565b6110f281610fb5565b81146110fd57600080fd5b50565b61110981610fe7565b811461111457600080fd5b50565b61112081610ff1565b811461112b57600080fd5b5056fea264697066735822122029d59da1298ae5963e78a1766fdf395abf3d52a6efa14184af9fc1ba7676240464736f6c63430008040033",
  "linkReferences": {},
  "deployedLinkReferences": {}
}